{
  "contractName": "UserCredentials",
  "abi": [
    {
      "inputs": [
        {
          "internalType": "address",
          "name": "",
          "type": "address"
        },
        {
          "internalType": "uint256",
          "name": "",
          "type": "uint256"
        }
      ],
      "name": "credentials",
      "outputs": [
        {
          "internalType": "string",
          "name": "url",
          "type": "string"
        },
        {
          "internalType": "string",
          "name": "username",
          "type": "string"
        },
        {
          "internalType": "uint256",
          "name": "timestamp",
          "type": "uint256"
        },
        {
          "internalType": "string",
          "name": "password",
          "type": "string"
        }
      ],
      "stateMutability": "view",
      "type": "function",
      "constant": true
    },
    {
      "inputs": [
        {
          "internalType": "string",
          "name": "url",
          "type": "string"
        },
        {
          "internalType": "string",
          "name": "username",
          "type": "string"
        },
        {
          "internalType": "string",
          "name": "password",
          "type": "string"
        }
      ],
      "name": "storeCredential",
      "outputs": [],
      "stateMutability": "nonpayable",
      "type": "function"
    },
    {
      "inputs": [
        {
          "internalType": "string",
          "name": "oldUrl",
          "type": "string"
        },
        {
          "internalType": "string",
          "name": "oldUsername",
          "type": "string"
        },
        {
          "internalType": "string",
          "name": "newUrl",
          "type": "string"
        },
        {
          "internalType": "string",
          "name": "newUsername",
          "type": "string"
        },
        {
          "internalType": "string",
          "name": "newPassword",
          "type": "string"
        }
      ],
      "name": "updateCredential",
      "outputs": [],
      "stateMutability": "nonpayable",
      "type": "function"
    },
    {
      "inputs": [
        {
          "internalType": "string",
          "name": "url",
          "type": "string"
        },
        {
          "internalType": "string",
          "name": "username",
          "type": "string"
        }
      ],
      "name": "deleteCredential",
      "outputs": [],
      "stateMutability": "nonpayable",
      "type": "function"
    },
    {
      "inputs": [],
      "name": "getAllCredentialswithPassword",
      "outputs": [
        {
          "components": [
            {
              "internalType": "string",
              "name": "url",
              "type": "string"
            },
            {
              "internalType": "string",
              "name": "username",
              "type": "string"
            },
            {
              "internalType": "uint256",
              "name": "timestamp",
              "type": "uint256"
            },
            {
              "internalType": "string",
              "name": "password",
              "type": "string"
            }
          ],
          "internalType": "struct UserCredentials.Credential[]",
          "name": "",
          "type": "tuple[]"
        }
      ],
      "stateMutability": "view",
      "type": "function",
      "constant": true
    },
    {
      "inputs": [
        {
          "internalType": "string",
          "name": "url",
          "type": "string"
        }
      ],
      "name": "getAllCredentialsForUrl",
      "outputs": [
        {
          "components": [
            {
              "internalType": "string",
              "name": "url",
              "type": "string"
            },
            {
              "internalType": "string",
              "name": "username",
              "type": "string"
            },
            {
              "internalType": "uint256",
              "name": "timestamp",
              "type": "uint256"
            },
            {
              "internalType": "string",
              "name": "password",
              "type": "string"
            }
          ],
          "internalType": "struct UserCredentials.Credential[]",
          "name": "",
          "type": "tuple[]"
        }
      ],
      "stateMutability": "view",
      "type": "function",
      "constant": true
    },
    {
      "inputs": [],
      "name": "getAllCredentialswithoutPassword",
      "outputs": [
        {
          "components": [
            {
              "internalType": "string",
              "name": "url",
              "type": "string"
            },
            {
              "internalType": "string",
              "name": "username",
              "type": "string"
            },
            {
              "internalType": "uint256",
              "name": "timestamp",
              "type": "uint256"
            },
            {
              "internalType": "string",
              "name": "password",
              "type": "string"
            }
          ],
          "internalType": "struct UserCredentials.Credential[]",
          "name": "",
          "type": "tuple[]"
        }
      ],
      "stateMutability": "view",
      "type": "function",
      "constant": true
    }
  ],
  "bytecode": "0x608060405234801561001057600080fd5b50611d2a806100206000396000f3fe608060405234801561001057600080fd5b506004361061007d5760003560e01c8063584f93fa1161005b578063584f93fa146101015780636d0fa4b21461011d578063c1c86d471461013b578063f8ead855146101575761007d565b806303cb278a14610082578063221fcc76146100b557806322aa9e97146100e5575b600080fd5b61009c600480360381019061009791906114ea565b610175565b6040516100ac94939291906119e3565b60405180910390f35b6100cf60048036038101906100ca9190611526565b61035a565b6040516100dc91906119c1565b60405180910390f35b6100ff60048036038101906100fa91906115d3565b6107f0565b005b61011b60048036038101906101169190611567565b61094f565b005b610125610b19565b60405161013291906119c1565b60405180910390f35b6101556004803603810190610150919061166a565b610e6c565b005b61015f6110f2565b60405161016c91906119c1565b60405180910390f35b6000602052816000526040600020818154811061019157600080fd5b9060005260206000209060040201600091509150508060000180546101b590611bad565b80601f01602080910402602001604051908101604052809291908181526020018280546101e190611bad565b801561022e5780601f106102035761010080835404028352916020019161022e565b820191906000526020600020905b81548152906001019060200180831161021157829003601f168201915b50505050509080600101805461024390611bad565b80601f016020809104026020016040519081016040528092919081815260200182805461026f90611bad565b80156102bc5780601f10610291576101008083540402835291602001916102bc565b820191906000526020600020905b81548152906001019060200180831161029f57829003601f168201915b5050505050908060020154908060030180546102d790611bad565b80601f016020809104026020016040519081016040528092919081815260200182805461030390611bad565b80156103505780601f1061032557610100808354040283529160200191610350565b820191906000526020600020905b81548152906001019060200180831161033357829003601f168201915b5050505050905084565b606060008060003373ffffffffffffffffffffffffffffffffffffffff1673ffffffffffffffffffffffffffffffffffffffff16815260200190815260200160002090506000818054905067ffffffffffffffff8111156103e4577f4e487b7100000000000000000000000000000000000000000000000000000000600052604160045260246000fd5b60405190808252806020026020018201604052801561041d57816020015b61040a61134d565b8152602001906001900390816104025790505b5090506000805b83805490508110156107e4578580519060200120848281548110610471577f4e487b7100000000000000000000000000000000000000000000000000000000600052603260045260246000fd5b906000526020600020906004020160000160405161048f91906119aa565b604051809103902014156107d15760405180608001604052808583815481106104e1577f4e487b7100000000000000000000000000000000000000000000000000000000600052603260045260246000fd5b906000526020600020906004020160000180546104fd90611bad565b80601f016020809104026020016040519081016040528092919081815260200182805461052990611bad565b80156105765780601f1061054b57610100808354040283529160200191610576565b820191906000526020600020905b81548152906001019060200180831161055957829003601f168201915b505050505081526020018583815481106105b9577f4e487b7100000000000000000000000000000000000000000000000000000000600052603260045260246000fd5b906000526020600020906004020160010180546105d590611bad565b80601f016020809104026020016040519081016040528092919081815260200182805461060190611bad565b801561064e5780601f106106235761010080835404028352916020019161064e565b820191906000526020600020905b81548152906001019060200180831161063157829003601f168201915b50505050508152602001858381548110610691577f4e487b7100000000000000000000000000000000000000000000000000000000600052603260045260246000fd5b90600052602060002090600402016002015481526020018583815481106106e1577f4e487b7100000000000000000000000000000000000000000000000000000000600052603260045260246000fd5b906000526020600020906004020160030180546106fd90611bad565b80601f016020809104026020016040519081016040528092919081815260200182805461072990611bad565b80156107765780601f1061074b57610100808354040283529160200191610776565b820191906000526020600020905b81548152906001019060200180831161075957829003601f168201915b50505050508152508383815181106107b7577f4e487b7100000000000000000000000000000000000000000000000000000000600052603260045260246000fd5b602002602001018190525081806107cd90611bdf565b9250505b80806107dc90611bdf565b915050610424565b50819350505050919050565b6000839050600083905060008390506000803373ffffffffffffffffffffffffffffffffffffffff1673ffffffffffffffffffffffffffffffffffffffff1681526020019081526020016000206040518060800160405280856040516020016108599190611993565b60405160208183030381529060405281526020018460405160200161087e9190611993565b6040516020818303038152906040528152602001428152602001836040516020016108a99190611993565b60405160208183030381529060405281525090806001815401808255809150506001900390600052602060002090600402016000909190919091506000820151816000019080519060200190610900929190611375565b50602082015181600101908051906020019061091d929190611375565b50604082015181600201556060820151816003019080519060200190610944929190611375565b505050505050505050565b60008060003373ffffffffffffffffffffffffffffffffffffffff1673ffffffffffffffffffffffffffffffffffffffff168152602001908152602001600020905060005b8180549050811015610b135783805190602001208282815481106109e1577f4e487b7100000000000000000000000000000000000000000000000000000000600052603260045260246000fd5b90600052602060002090600402016000016040516109ff91906119aa565b6040518091039020148015610a7857508280519060200120828281548110610a50577f4e487b7100000000000000000000000000000000000000000000000000000000600052603260045260246000fd5b9060005260206000209060040201600101604051610a6e91906119aa565b6040518091039020145b15610b0057818181548110610ab6577f4e487b7100000000000000000000000000000000000000000000000000000000600052603260045260246000fd5b906000526020600020906004020160008082016000610ad591906113fb565b600182016000610ae591906113fb565b6002820160009055600382016000610afd91906113fb565b50505b8080610b0b90611bdf565b915050610994565b50505050565b606060008060003373ffffffffffffffffffffffffffffffffffffffff1673ffffffffffffffffffffffffffffffffffffffff16815260200190815260200160002090506000818054905067ffffffffffffffff811115610ba3577f4e487b7100000000000000000000000000000000000000000000000000000000600052604160045260246000fd5b604051908082528060200260200182016040528015610bdc57816020015b610bc961134d565b815260200190600190039081610bc15790505b50905060005b8280549050811015610e63576040518060800160405280848381548110610c32577f4e487b7100000000000000000000000000000000000000000000000000000000600052603260045260246000fd5b90600052602060002090600402016000018054610c4e90611bad565b80601f0160208091040260200160405190810160405280929190818152602001828054610c7a90611bad565b8015610cc75780601f10610c9c57610100808354040283529160200191610cc7565b820191906000526020600020905b815481529060010190602001808311610caa57829003601f168201915b50505050508152602001848381548110610d0a577f4e487b7100000000000000000000000000000000000000000000000000000000600052603260045260246000fd5b90600052602060002090600402016001018054610d2690611bad565b80601f0160208091040260200160405190810160405280929190818152602001828054610d5290611bad565b8015610d9f5780601f10610d7457610100808354040283529160200191610d9f565b820191906000526020600020905b815481529060010190602001808311610d8257829003601f168201915b50505050508152602001848381548110610de2577f4e487b7100000000000000000000000000000000000000000000000000000000600052603260045260246000fd5b906000526020600020906004020160020154815260200160405180602001604052806000815250815250828281518110610e45577f4e487b7100000000000000000000000000000000000000000000000000000000600052603260045260246000fd5b60200260200101819052508080610e5b90611bdf565b915050610be2565b50809250505090565b60008060003373ffffffffffffffffffffffffffffffffffffffff1673ffffffffffffffffffffffffffffffffffffffff168152602001908152602001600020905060005b81805490508110156110e9578680519060200120828281548110610efe577f4e487b7100000000000000000000000000000000000000000000000000000000600052603260045260246000fd5b9060005260206000209060040201600001604051610f1c91906119aa565b6040518091039020148015610f9557508580519060200120828281548110610f6d577f4e487b7100000000000000000000000000000000000000000000000000000000600052603260045260246000fd5b9060005260206000209060040201600101604051610f8b91906119aa565b6040518091039020145b156110d657600085905060008590506000859050604051806080016040528084604051602001610fc59190611993565b604051602081830303815290604052815260200183604051602001610fea9190611993565b6040516020818303038152906040528152602001428152602001826040516020016110159190611993565b604051602081830303815290604052815250858581548110611060577f4e487b7100000000000000000000000000000000000000000000000000000000600052603260045260246000fd5b9060005260206000209060040201600082015181600001908051906020019061108a929190611375565b5060208201518160010190805190602001906110a7929190611375565b506040820151816002015560608201518160030190805190602001906110ce929190611375565b509050505050505b80806110e190611bdf565b915050610eb1565b50505050505050565b60606000803373ffffffffffffffffffffffffffffffffffffffff1673ffffffffffffffffffffffffffffffffffffffff168152602001908152602001600020805480602002602001604051908101604052809291908181526020016000905b82821015611344578382906000526020600020906004020160405180608001604052908160008201805461118590611bad565b80601f01602080910402602001604051908101604052809291908181526020018280546111b190611bad565b80156111fe5780601f106111d3576101008083540402835291602001916111fe565b820191906000526020600020905b8154815290600101906020018083116111e157829003601f168201915b5050505050815260200160018201805461121790611bad565b80601f016020809104026020016040519081016040528092919081815260200182805461124390611bad565b80156112905780601f1061126557610100808354040283529160200191611290565b820191906000526020600020905b81548152906001019060200180831161127357829003601f168201915b50505050508152602001600282015481526020016003820180546112b390611bad565b80601f01602080910402602001604051908101604052809291908181526020018280546112df90611bad565b801561132c5780601f106113015761010080835404028352916020019161132c565b820191906000526020600020905b81548152906001019060200180831161130f57829003601f168201915b50505050508152505081526020019060010190611152565b50505050905090565b6040518060800160405280606081526020016060815260200160008152602001606081525090565b82805461138190611bad565b90600052602060002090601f0160209004810192826113a357600085556113ea565b82601f106113bc57805160ff19168380011785556113ea565b828001600101855582156113ea579182015b828111156113e95782518255916020019190600101906113ce565b5b5090506113f7919061143b565b5090565b50805461140790611bad565b6000825580601f106114195750611438565b601f016020900490600052602060002090810190611437919061143b565b5b50565b5b8082111561145457600081600090555060010161143c565b5090565b600061146b61146684611a6e565b611a3d565b90508281526020810184848401111561148357600080fd5b61148e848285611b6b565b509392505050565b6000813590506114a581611cc6565b92915050565b600082601f8301126114bc57600080fd5b81356114cc848260208601611458565b91505092915050565b6000813590506114e481611cdd565b92915050565b600080604083850312156114fd57600080fd5b600061150b85828601611496565b925050602061151c858286016114d5565b9150509250929050565b60006020828403121561153857600080fd5b600082013567ffffffffffffffff81111561155257600080fd5b61155e848285016114ab565b91505092915050565b6000806040838503121561157a57600080fd5b600083013567ffffffffffffffff81111561159457600080fd5b6115a0858286016114ab565b925050602083013567ffffffffffffffff8111156115bd57600080fd5b6115c9858286016114ab565b9150509250929050565b6000806000606084860312156115e857600080fd5b600084013567ffffffffffffffff81111561160257600080fd5b61160e868287016114ab565b935050602084013567ffffffffffffffff81111561162b57600080fd5b611637868287016114ab565b925050604084013567ffffffffffffffff81111561165457600080fd5b611660868287016114ab565b9150509250925092565b600080600080600060a0868803121561168257600080fd5b600086013567ffffffffffffffff81111561169c57600080fd5b6116a8888289016114ab565b955050602086013567ffffffffffffffff8111156116c557600080fd5b6116d1888289016114ab565b945050604086013567ffffffffffffffff8111156116ee57600080fd5b6116fa888289016114ab565b935050606086013567ffffffffffffffff81111561171757600080fd5b611723888289016114ab565b925050608086013567ffffffffffffffff81111561174057600080fd5b61174c888289016114ab565b9150509295509295909350565b60006117658383611904565b905092915050565b600061177882611ac3565b6117828185611af1565b93508360208202850161179485611a9e565b8060005b858110156117d057848403895281516117b18582611759565b94506117bc83611ae4565b925060208a01995050600181019050611798565b50829750879550505050505092915050565b60006117ed82611ace565b6117f78185611b02565b9350611807818560208601611b7a565b80840191505092915050565b6000815461182081611bad565b61182a8186611b02565b94506001821660008114611845576001811461185657611889565b60ff19831686528186019350611889565b61185f85611aae565b60005b8381101561188157815481890152600182019150602081019050611862565b838801955050505b50505092915050565b600061189d82611ad9565b6118a78185611b0d565b93506118b7818560208601611b7a565b6118c081611cb5565b840191505092915050565b60006118d682611ad9565b6118e08185611b1e565b93506118f0818560208601611b7a565b6118f981611cb5565b840191505092915050565b600060808301600083015184820360008601526119218282611892565b9150506020830151848203602086015261193b8282611892565b91505060408301516119506040860182611975565b50606083015184820360608601526119688282611892565b9150508091505092915050565b61197e81611b61565b82525050565b61198d81611b61565b82525050565b600061199f82846117e2565b915081905092915050565b60006119b68284611813565b915081905092915050565b600060208201905081810360008301526119db818461176d565b905092915050565b600060808201905081810360008301526119fd81876118cb565b90508181036020830152611a1181866118cb565b9050611a206040830185611984565b8181036060830152611a3281846118cb565b905095945050505050565b6000604051905081810181811067ffffffffffffffff82111715611a6457611a63611c86565b5b8060405250919050565b600067ffffffffffffffff821115611a8957611a88611c86565b5b601f19601f8301169050602081019050919050565b6000819050602082019050919050565b60008190508160005260206000209050919050565b600081519050919050565b600081519050919050565b600081519050919050565b6000602082019050919050565b600082825260208201905092915050565b600081905092915050565b600082825260208201905092915050565b600082825260208201905092915050565b6000611b3a82611b41565b9050919050565b600073ffffffffffffffffffffffffffffffffffffffff82169050919050565b6000819050919050565b82818337600083830152505050565b60005b83811015611b98578082015181840152602081019050611b7d565b83811115611ba7576000848401525b50505050565b60006002820490506001821680611bc557607f821691505b60208210811415611bd957611bd8611c57565b5b50919050565b6000611bea82611b61565b91507fffffffffffffffffffffffffffffffffffffffffffffffffffffffffffffffff821415611c1d57611c1c611c28565b5b600182019050919050565b7f4e487b7100000000000000000000000000000000000000000000000000000000600052601160045260246000fd5b7f4e487b7100000000000000000000000000000000000000000000000000000000600052602260045260246000fd5b7f4e487b7100000000000000000000000000000000000000000000000000000000600052604160045260246000fd5b6000601f19601f8301169050919050565b611ccf81611b2f565b8114611cda57600080fd5b50565b611ce681611b61565b8114611cf157600080fd5b5056fea2646970667358221220764238f358b35ea20da5c795fe027c5a9b5631ed1ba41b513e79b98946fed0d964736f6c63430008000033",
  "immutableReferences": {},
  "source": "// SPDX-License-Identifier: MIT\npragma solidity ^0.8.0;\n\ncontract UserCredentials {\n    struct Credential {\n        string url;\n        string username;\n        uint256 timestamp;\n        string password;\n    }\n\n    mapping(address => Credential[]) public credentials;\n\n    function storeCredential(string memory url, string memory username, string memory password) public {\n        bytes memory _url = bytes(url);\n        bytes memory _username = bytes(username);\n        bytes memory _password = bytes(password);\n\n        credentials[msg.sender].push(Credential(\n            string(abi.encodePacked(_url)),\n            string(abi.encodePacked(_username)),\n            block.timestamp,\n            string(abi.encodePacked(_password))\n        ));\n    }\n\n    function updateCredential(string memory oldUrl, string memory oldUsername, string memory newUrl, string memory newUsername, string memory newPassword) public {\n        Credential[] storage allCredentials = credentials[msg.sender];\n\n        for (uint256 i = 0; i < allCredentials.length; i++) {\n            if (keccak256(bytes(allCredentials[i].url)) == keccak256(bytes(oldUrl)) && keccak256(bytes(allCredentials[i].username)) == keccak256(bytes(oldUsername))) {\n                bytes memory _newUrl = bytes(newUrl);\n                bytes memory _newUsername = bytes(newUsername);\n                bytes memory _newPassword = bytes(newPassword);\n\n                allCredentials[i] = Credential(\n                    string(abi.encodePacked(_newUrl)),\n                    string(abi.encodePacked(_newUsername)),\n                    block.timestamp,\n                    string(abi.encodePacked(_newPassword))\n                );\n            }\n        }\n    }\n\n    function deleteCredential(string memory url, string memory username) public {\n        Credential[] storage allCredentials = credentials[msg.sender];\n\n        for (uint256 i = 0; i < allCredentials.length; i++) {\n            if (keccak256(bytes(allCredentials[i].url)) == keccak256(bytes(url)) && keccak256(bytes(allCredentials[i].username)) == keccak256(bytes(username))) {\n                delete allCredentials[i];\n            }\n        }\n    }\n\n    function getAllCredentialswithPassword() public view returns (Credential[] memory) {\n        return credentials[msg.sender];\n    }\n\n    function getAllCredentialsForUrl(string memory url) public view returns (Credential[] memory) {\n        Credential[] storage allCredentials = credentials[msg.sender];\n        Credential[] memory matchingCredentials = new Credential[](allCredentials.length);\n\n        uint256 count = 0;\n        for (uint256 i = 0; i < allCredentials.length; i++) {\n            if (keccak256(bytes(allCredentials[i].url)) == keccak256(bytes(url))) {\n                matchingCredentials[count] = Credential(\n                    allCredentials[i].url,\n                    allCredentials[i].username,\n                    allCredentials[i].timestamp,\n                    allCredentials[i].password\n                );\n                count++;\n            }\n        }\n\n        return matchingCredentials;\n    }\n\n    function getAllCredentialswithoutPassword() public view returns (Credential[] memory) {\n        Credential[] storage allCredentials = credentials[msg.sender];\n        Credential[] memory decryptedCredentials = new Credential[](allCredentials.length);\n\n        for (uint256 i = 0; i < allCredentials.length; i++) {\n            decryptedCredentials[i] = Credential(\n                allCredentials[i].url,\n                allCredentials[i].username,\n                allCredentials[i].timestamp,\n                \"\"\n            );\n        }\n\n        return decryptedCredentials;\n    }\n}",
  "sourcePath": "/home/pari/MajorProject/SmartContract/contracts/UserCredentials.sol",
  "compiler": {
    "name": "solc",
    "version": "0.8.0+commit.c7dfd78e.Emscripten.clang"
  },
  "schemaVersion": "3.4.11",
  "updatedAt": "2023-04-08T04:30:09.755Z",
  "networkType": "ethereum",
  "devdoc": {
    "kind": "dev",
    "methods": {},
    "version": 1
  },
  "userdoc": {
    "kind": "user",
    "methods": {},
    "version": 1
  }
}